{
    "_format": "hh-sol-artifact-1",
    "contractName": "WavePortal",
    "sourceName": "contracts/WavePortal.sol",
    "abi": [
        {
            "inputs": [],
            "stateMutability": "nonpayable",
            "type": "constructor"
        },
        {
            "inputs": [],
            "name": "getTotalWaves",
            "outputs": [
                {
                    "internalType": "uint256",
                    "name": "",
                    "type": "uint256"
                }
            ],
            "stateMutability": "view",
            "type": "function"
        },
        {
            "inputs": [],
            "name": "wave",
            "outputs": [],
            "stateMutability": "nonpayable",
            "type": "function"
        }
    ],
    "bytecode": "0x608060405234801561001057600080fd5b506100596040518060400160405280600681526020017f596f6f6f6f6f000000000000000000000000000000000000000000000000000081525061005e60201b61016b1760201c565b6101e1565b6100fa81604051602401610072919061015f565b6040516020818303038152906040527f41304fac000000000000000000000000000000000000000000000000000000007bffffffffffffffffffffffffffffffffffffffffffffffffffffffff19166020820180517bffffffffffffffffffffffffffffffffffffffffffffffffffffffff83818316178352505050506100fd60201b60201c565b50565b60008151905060006a636f6e736f6c652e6c6f679050602083016000808483855afa5050505050565b600061013182610181565b61013b818561018c565b935061014b81856020860161019d565b610154816101d0565b840191505092915050565b600060208201905081810360008301526101798184610126565b905092915050565b600081519050919050565b600082825260208201905092915050565b60005b838110156101bb5780820151818401526020810190506101a0565b838111156101ca576000848401525b50505050565b6000601f19601f8301169050919050565b6105b0806101f06000396000f3fe608060405234801561001057600080fd5b50600436106100365760003560e01c80636fe15b441461003b5780639a2cdc0814610045575b600080fd5b610043610063565b005b61004d610120565b60405161005a919061043e565b60405180910390f35b60016000808282546100759190610475565b925050819055506100bb6040518060400160405280600c81526020017f257320686173207761766564000000000000000000000000000000000000000081525033610204565b6001339080600181540180825580915050600190039060005260206000200160009091909190916101000a81548173ffffffffffffffffffffffffffffffffffffffff021916908373ffffffffffffffffffffffffffffffffffffffff160217905550565b60006101636040518060400160405280601681526020017f7765206861766520256420746f74616c207761766573000000000000000000008152506000546102a0565b600054905090565b6102018160405160240161017f91906103bc565b6040516020818303038152906040527f41304fac000000000000000000000000000000000000000000000000000000007bffffffffffffffffffffffffffffffffffffffffffffffffffffffff19166020820180517bffffffffffffffffffffffffffffffffffffffffffffffffffffffff838183161783525050505061033c565b50565b61029c828260405160240161021a9291906103de565b6040516020818303038152906040527f319af333000000000000000000000000000000000000000000000000000000007bffffffffffffffffffffffffffffffffffffffffffffffffffffffff19166020820180517bffffffffffffffffffffffffffffffffffffffffffffffffffffffff838183161783525050505061033c565b5050565b61033882826040516024016102b692919061040e565b6040516020818303038152906040527f9710a9d0000000000000000000000000000000000000000000000000000000007bffffffffffffffffffffffffffffffffffffffffffffffffffffffff19166020820180517bffffffffffffffffffffffffffffffffffffffffffffffffffffffff838183161783525050505061033c565b5050565b60008151905060006a636f6e736f6c652e6c6f679050602083016000808483855afa5050505050565b61036e816104cb565b82525050565b600061037f82610459565b6103898185610464565b9350610399818560208601610507565b6103a281610569565b840191505092915050565b6103b6816104fd565b82525050565b600060208201905081810360008301526103d68184610374565b905092915050565b600060408201905081810360008301526103f88185610374565b90506104076020830184610365565b9392505050565b600060408201905081810360008301526104288185610374565b905061043760208301846103ad565b9392505050565b600060208201905061045360008301846103ad565b92915050565b600081519050919050565b600082825260208201905092915050565b6000610480826104fd565b915061048b836104fd565b9250827fffffffffffffffffffffffffffffffffffffffffffffffffffffffffffffffff038211156104c0576104bf61053a565b5b828201905092915050565b60006104d6826104dd565b9050919050565b600073ffffffffffffffffffffffffffffffffffffffff82169050919050565b6000819050919050565b60005b8381101561052557808201518184015260208101905061050a565b83811115610534576000848401525b50505050565b7f4e487b7100000000000000000000000000000000000000000000000000000000600052601160045260246000fd5b6000601f19601f830116905091905056fea2646970667358221220ab4e19a0621ad97156f63436608bd33c388975a1f46b6e8f82cd3477c532ff6e64736f6c63430008040033",
    "linkReferences": {},
    "deployedLinkReferences": {}
}